{
  "contractName": "DRCSeller",
  "abi": [
    {
      "inputs": [
        {
          "internalType": "uint256",
          "name": "rate_",
          "type": "uint256"
        },
        {
          "internalType": "address payable",
          "name": "wallet_",
          "type": "address"
        },
        {
          "internalType": "contract IERC20",
          "name": "token_",
          "type": "address"
        }
      ],
      "stateMutability": "nonpayable",
      "type": "constructor"
    },
    {
      "anonymous": false,
      "inputs": [
        {
          "indexed": true,
          "internalType": "address",
          "name": "previousOwner",
          "type": "address"
        },
        {
          "indexed": true,
          "internalType": "address",
          "name": "newOwner",
          "type": "address"
        }
      ],
      "name": "OwnershipTransferred",
      "type": "event"
    },
    {
      "anonymous": false,
      "inputs": [
        {
          "indexed": false,
          "internalType": "uint256",
          "name": "rate",
          "type": "uint256"
        }
      ],
      "name": "RateChanged",
      "type": "event"
    },
    {
      "anonymous": false,
      "inputs": [
        {
          "indexed": true,
          "internalType": "address",
          "name": "beneficiary",
          "type": "address"
        },
        {
          "indexed": false,
          "internalType": "uint256",
          "name": "tokenAmount",
          "type": "uint256"
        }
      ],
      "name": "TokensPurchased",
      "type": "event"
    },
    {
      "stateMutability": "payable",
      "type": "fallback",
      "payable": true
    },
    {
      "inputs": [],
      "name": "owner",
      "outputs": [
        {
          "internalType": "address",
          "name": "",
          "type": "address"
        }
      ],
      "stateMutability": "view",
      "type": "function",
      "constant": true
    },
    {
      "inputs": [],
      "name": "renounceOwnership",
      "outputs": [],
      "stateMutability": "nonpayable",
      "type": "function"
    },
    {
      "inputs": [
        {
          "internalType": "address",
          "name": "newOwner",
          "type": "address"
        }
      ],
      "name": "transferOwnership",
      "outputs": [],
      "stateMutability": "nonpayable",
      "type": "function"
    },
    {
      "stateMutability": "payable",
      "type": "receive",
      "payable": true
    },
    {
      "inputs": [],
      "name": "token",
      "outputs": [
        {
          "internalType": "contract IERC20",
          "name": "",
          "type": "address"
        }
      ],
      "stateMutability": "view",
      "type": "function",
      "constant": true
    },
    {
      "inputs": [],
      "name": "wallet",
      "outputs": [
        {
          "internalType": "address payable",
          "name": "",
          "type": "address"
        }
      ],
      "stateMutability": "view",
      "type": "function",
      "constant": true
    },
    {
      "inputs": [],
      "name": "rate",
      "outputs": [
        {
          "internalType": "uint256",
          "name": "",
          "type": "uint256"
        }
      ],
      "stateMutability": "view",
      "type": "function",
      "constant": true
    },
    {
      "inputs": [
        {
          "internalType": "uint256",
          "name": "r",
          "type": "uint256"
        }
      ],
      "name": "setRate",
      "outputs": [],
      "stateMutability": "nonpayable",
      "type": "function"
    },
    {
      "inputs": [],
      "name": "saleEnded",
      "outputs": [
        {
          "internalType": "bool",
          "name": "",
          "type": "bool"
        }
      ],
      "stateMutability": "view",
      "type": "function",
      "constant": true
    },
    {
      "inputs": [
        {
          "internalType": "bool",
          "name": "end",
          "type": "bool"
        }
      ],
      "name": "setEnd",
      "outputs": [],
      "stateMutability": "nonpayable",
      "type": "function"
    },
    {
      "inputs": [],
      "name": "tokensSold",
      "outputs": [
        {
          "internalType": "uint256",
          "name": "",
          "type": "uint256"
        }
      ],
      "stateMutability": "view",
      "type": "function",
      "constant": true
    },
    {
      "inputs": [],
      "name": "remainingTokens",
      "outputs": [
        {
          "internalType": "uint256",
          "name": "",
          "type": "uint256"
        }
      ],
      "stateMutability": "view",
      "type": "function",
      "constant": true
    },
    {
      "inputs": [],
      "name": "buyDRCwithBNB",
      "outputs": [],
      "stateMutability": "payable",
      "type": "function",
      "payable": true
    },
    {
      "inputs": [
        {
          "internalType": "uint256",
          "name": "amount",
          "type": "uint256"
        }
      ],
      "name": "buyDRCwithBUSD",
      "outputs": [],
      "stateMutability": "nonpayable",
      "type": "function"
    },
    {
      "inputs": [],
      "name": "forwardBNB",
      "outputs": [],
      "stateMutability": "nonpayable",
      "type": "function"
    },
    {
      "inputs": [],
      "name": "forwardDRC",
      "outputs": [],
      "stateMutability": "nonpayable",
      "type": "function"
    },
    {
      "inputs": [],
      "name": "forwardBUSD",
      "outputs": [],
      "stateMutability": "nonpayable",
      "type": "function"
    }
  ],
  "bytecode": "0x6080604052600680547487ea38c9f24264ec1fff41b04ec94a97caf9994100610100600160a81b0319909116179055600780546001600160a01b03191673e9e7cea3dedca5984780bafc599bd69add087d5617905534801561006057600080fd5b5060405161165d38038061165d8339818101604052606081101561008357600080fd5b5080516020820151604090920151600160009081559192916100ac6001600160e01b0361023216565b600180546001600160a01b0319166001600160a01b038316908117909155604051919250906000907f8be0079c531659141344cd1fd0a4f28419497f9722a3daafe3b4186f6b6457e0908290a3506000831161013b576040805162461bcd60e51b815260206004820152600960248201526805261746520697320360bc1b604482015290519081900360640190fd5b6001600160a01b038216610196576040805162461bcd60e51b815260206004820152601a60248201527f57616c6c657420697320746865207a65726f2061646472657373000000000000604482015290519081900360640190fd5b6001600160a01b0381166101f1576040805162461bcd60e51b815260206004820152601960248201527f546f6b656e20697320746865207a65726f206164647265737300000000000000604482015290519081900360640190fd5b600492909255600380546001600160a01b039283166001600160a01b031991821617909155600280549290931691161790556006805460ff19169055610236565b3390565b611418806102456000396000f3fe6080604052600436106100f75760003560e01c80639b8906ae1161008a578063d0e8b47611610059578063d0e8b47614610261578063f0e3d1ba14610276578063f2fde38b146102a2578063fc0c546a146102d557610106565b80639b8906ae146101e4578063a4934b141461020d578063bca2f27214610222578063bf5839031461024c57610106565b806358e88445116100c657806358e8844514610106578063715018a6146101a557806388ac9cd4146101ba5780638da5cb5b146101cf57610106565b80632c4e722e1461010e57806334fcf43714610135578063518ab2a81461015f578063521eb2731461017457610106565b36610106576101046102ea565b005b6101046102ea565b34801561011a57600080fd5b506101236104ac565b60408051918252519081900360200190f35b34801561014157600080fd5b506101046004803603602081101561015857600080fd5b50356104b2565b34801561016b57600080fd5b50610123610545565b34801561018057600080fd5b5061018961054b565b604080516001600160a01b039092168252519081900360200190f35b3480156101b157600080fd5b5061010461055a565b3480156101c657600080fd5b506101046105fc565b3480156101db57600080fd5b50610189610638565b3480156101f057600080fd5b506101f9610647565b604080519115158252519081900360200190f35b34801561021957600080fd5b50610104610650565b34801561022e57600080fd5b506101046004803603602081101561024557600080fd5b50356106ea565b34801561025857600080fd5b506101236109b3565b34801561026d57600080fd5b50610104610a3e565b34801561028257600080fd5b506101046004803603602081101561029957600080fd5b50351515610b53565b3480156102ae57600080fd5b50610104600480360360208110156102c557600080fd5b50356001600160a01b0316610bbe565b3480156102e157600080fd5b50610189610cb7565b60026000541415610342576040805162461bcd60e51b815260206004820152601f60248201527f5265656e7472616e637947756172643a207265656e7472616e742063616c6c00604482015290519081900360640190fd5b60026000908155610351610cc6565b90503480610394576040805162461bcd60e51b815260206004820152600b60248201526a0416d6f756e7420697320360ac1b604482015290519081900360640190fd5b6000600660019054906101000a90046001600160a01b03166001600160a01b03166350d25bcd6040518163ffffffff1660e01b815260040160206040518083038186803b1580156103e457600080fd5b505afa1580156103f8573d6000803e3d6000fd5b505050506040513d602081101561040e57600080fd5b50519050600061044461043f8361043386670de0b6b3a764000063ffffffff610cca16565b9063ffffffff610d2c16565b610d6e565b90506104508482610da5565b61045a8482610ee8565b6040805182815290516001600160a01b038616917f8f28852646c20cc973d3a8218f7eefed58c25c909f78f0265af4818c3d4dc271919081900360200190a26104a16105fc565b505060016000555050565b60045490565b6104ba610cc6565b6001546001600160a01b0390811691161461050a576040805162461bcd60e51b81526020600482018190526024820152600080516020611399833981519152604482015290519081900360640190fd5b60048190556040805182815290517f595a30f13a69b616c4d568e2a2b7875fdfe86e4300a049953c76ee278f8f3f109181900360200190a150565b60055490565b6003546001600160a01b031690565b610562610cc6565b6001546001600160a01b039081169116146105b2576040805162461bcd60e51b81526020600482018190526024820152600080516020611399833981519152604482015290519081900360640190fd5b6001546040516000916001600160a01b0316907f8be0079c531659141344cd1fd0a4f28419497f9722a3daafe3b4186f6b6457e0908390a3600180546001600160a01b0319169055565b6003546040516001600160a01b03909116904780156108fc02916000818181858888f19350505050158015610635573d6000803e3d6000fd5b50565b6001546001600160a01b031690565b60065460ff1690565b600354600754604080516370a0823160e01b815230600482015290516106e8936001600160a01b039081169316916370a08231916024808301926020929190829003018186803b1580156106a357600080fd5b505afa1580156106b7573d6000803e3d6000fd5b505050506040513d60208110156106cd57600080fd5b50516007546001600160a01b0316919063ffffffff610ef216565b565b60026000541415610742576040805162461bcd60e51b815260206004820152601f60248201527f5265656e7472616e637947756172643a207265656e7472616e742063616c6c00604482015290519081900360640190fd5b60026000908155610751610cc6565b905081610793576040805162461bcd60e51b815260206004820152600b60248201526a0416d6f756e7420697320360ac1b604482015290519081900360640190fd5b600754604080516370a0823160e01b81526001600160a01b0384811660048301529151859392909216916370a0823191602480820192602092909190829003018186803b1580156107e357600080fd5b505afa1580156107f7573d6000803e3d6000fd5b505050506040513d602081101561080d57600080fd5b50511015610857576040805162461bcd60e51b81526020600482015260126024820152714e6f7420456e6f7567682042616c616e636560701b604482015290519081900360640190fd5b60075460408051636eb1769f60e11b81526001600160a01b03848116600483015230602483015291518593929092169163dd62ed3e91604480820192602092909190829003018186803b1580156108ad57600080fd5b505afa1580156108c1573d6000803e3d6000fd5b505050506040513d60208110156108d757600080fd5b50511015610923576040805162461bcd60e51b81526020600482015260146024820152734e6f7420456e6f75676820416c6c6f77616e636560601b604482015290519081900360640190fd5b600061092e83610d6e565b905061093a8282610da5565b600754610958906001600160a01b031683308663ffffffff610f4916565b6109628282610ee8565b6040805182815290516001600160a01b038416917f8f28852646c20cc973d3a8218f7eefed58c25c909f78f0265af4818c3d4dc271919081900360200190a26109a9610650565b5050600160005550565b60025460035460408051636eb1769f60e11b81526001600160a01b0392831660048201523060248201529051600093929092169163dd62ed3e91604480820192602092909190829003018186803b158015610a0d57600080fd5b505afa158015610a21573d6000803e3d6000fd5b505050506040513d6020811015610a3757600080fd5b5051905090565b600254604080516370a0823160e01b815230600482015290516000926001600160a01b0316916370a08231916024808301926020929190829003018186803b158015610a8957600080fd5b505afa158015610a9d573d6000803e3d6000fd5b505050506040513d6020811015610ab357600080fd5b505111156106e857600354600254604080516370a0823160e01b815230600482015290516106e8936001600160a01b039081169316916370a08231916024808301926020929190829003018186803b158015610b0e57600080fd5b505afa158015610b22573d6000803e3d6000fd5b505050506040513d6020811015610b3857600080fd5b50516002546001600160a01b0316919063ffffffff610ef216565b610b5b610cc6565b6001546001600160a01b03908116911614610bab576040805162461bcd60e51b81526020600482018190526024820152600080516020611399833981519152604482015290519081900360640190fd5b6006805460ff1916911515919091179055565b610bc6610cc6565b6001546001600160a01b03908116911614610c16576040805162461bcd60e51b81526020600482018190526024820152600080516020611399833981519152604482015290519081900360640190fd5b6001600160a01b038116610c5b5760405162461bcd60e51b81526004018080602001828103825260268152602001806113526026913960400191505060405180910390fd5b6001546040516001600160a01b038084169216907f8be0079c531659141344cd1fd0a4f28419497f9722a3daafe3b4186f6b6457e090600090a3600180546001600160a01b0319166001600160a01b0392909216919091179055565b6002546001600160a01b031690565b3390565b600082610cd957506000610d26565b82820282848281610ce657fe5b0414610d235760405162461bcd60e51b81526004018080602001828103825260218152602001806113786021913960400191505060405180910390fd5b90505b92915050565b6000610d2383836040518060400160405280601a81526020017f536166654d6174683a206469766973696f6e206279207a65726f000000000000815250610fa9565b6000610d26670de0b6b3a7640000610433633b9aca00610d9960045487610cca90919063ffffffff16565b9063ffffffff610cca16565b60065460ff1615610dea576040805162461bcd60e51b815260206004820152600a60248201526914d85b1948115b99195960b21b604482015290519081900360640190fd5b6001600160a01b038216610e45576040805162461bcd60e51b815260206004820152601960248201527f427579657220697320746865207a65726f206164647265737300000000000000604482015290519081900360640190fd5b80610e90576040805162461bcd60e51b8152602060048201526016602482015275053616c6520746f6b656e20616d6f756e7420697320360541b604482015290519081900360640190fd5b80610e996109b3565b1015610ee4576040805162461bcd60e51b81526020600482015260156024820152744c65737320746f6b656e732072656d61696e696e6760581b604482015290519081900360640190fd5b5050565b610ee4828261104b565b604080516001600160a01b038416602482015260448082018490528251808303909101815260649091019091526020810180516001600160e01b031663a9059cbb60e01b179052610f44908490611089565b505050565b604080516001600160a01b0380861660248301528416604482015260648082018490528251808303909101815260849091019091526020810180516001600160e01b03166323b872dd60e01b179052610fa3908590611089565b50505050565b600081836110355760405162461bcd60e51b81526004018080602001828103825283818151815260200191508051906020019080838360005b83811015610ffa578181015183820152602001610fe2565b50505050905090810190601f1680156110275780820380516001836020036101000a031916815260200191505b509250505060405180910390fd5b50600083858161104157fe5b0495945050505050565b60035460025461106f916001600160a01b039182169116848463ffffffff610f4916565b600554611082908263ffffffff61113a16565b6005555050565b60606110de826040518060400160405280602081526020017f5361666545524332303a206c6f772d6c6576656c2063616c6c206661696c6564815250856001600160a01b03166111949092919063ffffffff16565b805190915015610f44578080602001905160208110156110fd57600080fd5b5051610f445760405162461bcd60e51b815260040180806020018281038252602a8152602001806113b9602a913960400191505060405180910390fd5b600082820183811015610d23576040805162461bcd60e51b815260206004820152601b60248201527f536166654d6174683a206164646974696f6e206f766572666c6f770000000000604482015290519081900360640190fd5b60606111a384846000856111ab565b949350505050565b60606111b685611318565b611207576040805162461bcd60e51b815260206004820152601d60248201527f416464726573733a2063616c6c20746f206e6f6e2d636f6e7472616374000000604482015290519081900360640190fd5b60006060866001600160a01b031685876040518082805190602001908083835b602083106112465780518252601f199092019160209182019101611227565b6001836020036101000a03801982511681845116808217855250505050505090500191505060006040518083038185875af1925050503d80600081146112a8576040519150601f19603f3d011682016040523d82523d6000602084013e6112ad565b606091505b509150915081156112c15791506111a39050565b8051156112d15780518082602001fd5b60405162461bcd60e51b8152602060048201818152865160248401528651879391928392604401919085019080838360008315610ffa578181015183820152602001610fe2565b6000813f7fc5d2460186f7233c927e7db2dcc703c0e500b653ca82273b7bfad8045d85a4708181148015906111a357505015159291505056fe4f776e61626c653a206e6577206f776e657220697320746865207a65726f2061646472657373536166654d6174683a206d756c7469706c69636174696f6e206f766572666c6f774f776e61626c653a2063616c6c6572206973206e6f7420746865206f776e65725361666545524332303a204552433230206f7065726174696f6e20646964206e6f742073756363656564a2646970667358221220928914afe7502cbccc2b8e49b82da653f5f24e40b4345f62fbcc89c9d655fbd464736f6c63430006060033",
  "immutableReferences": {},
  "source": "// SPDX-License-Identifier: MIT\npragma solidity 0.6.6;\n\nimport \"./Context.sol\";\nimport \"./Ownable.sol\";\nimport \"./IERC20.sol\";\nimport \"./SafeERC20.sol\";\nimport \"./SafeMath.sol\";\nimport \"./ReentrancyGuard.sol\";\nimport \"./AggregatorV3Interface.sol\";\n\ncontract DRCSeller is Context, ReentrancyGuard, Ownable {\n    using SafeMath for uint256;\n    using SafeERC20 for IERC20;\n\n    IERC20 private _token;\n    address payable private _wallet;\n    uint256 private _rate;\n    uint256 private _tokensSold;\n    bool private _end;\n    AggregatorV3Interface BUSDBNB =\n        AggregatorV3Interface(0x87Ea38c9F24264Ec1Fff41B04ec94a97Caf99941);\n    IERC20 BUSD = IERC20(0xe9e7CEA3DedcA5984780Bafc599bD69ADd087D56);\n    // AggregatorV3Interface BUSDBNB =\n    //     AggregatorV3Interface(0x0630521aC362bc7A19a4eE44b57cE72Ea34AD01c);//testnet\n    // IERC20 BUSD = IERC20(0xE0dFffc2E01A7f051069649aD4eb3F518430B6a4);//testnet\n\n\n    event TokensPurchased(address indexed beneficiary, uint256 tokenAmount);\n    event RateChanged(uint256 rate);\n\n    constructor(\n        uint256 rate_,\n        address payable wallet_,\n        IERC20 token_\n    ) public {\n        require(rate_ > 0, \"Rate is 0\");\n        require(wallet_ != address(0), \"Wallet is the zero address\");\n        require(address(token_) != address(0), \"Token is the zero address\");\n        _rate = rate_;\n        _wallet = wallet_;\n        _token = token_;\n        _end = false;\n    }\n\n    receive() external payable {\n        buyDRCwithBNB();\n    }\n\n    fallback() external payable {\n        buyDRCwithBNB();\n    }\n\n    function token() public view returns (IERC20) {\n        return _token;\n    }\n\n    function wallet() public view returns (address payable) {\n        return _wallet;\n    }\n\n    function rate() public view returns (uint256) {\n        return _rate;\n    }\n\n    function setRate(uint256 r) public onlyOwner {\n        _rate = r;\n        emit RateChanged(_rate);\n    }\n\n    function saleEnded() public view returns (bool) {\n        return _end;\n    }\n\n    function setEnd(bool end) external onlyOwner {\n        _end = end;\n    }\n\n    function tokensSold() public view returns (uint256) {\n        return _tokensSold;\n    }\n\n    function remainingTokens() public view returns (uint256) {\n        return _token.allowance(_wallet, address(this));\n    }\n\n    function buyDRCwithBNB() public payable nonReentrant {\n        address beneficiary = _msgSender();\n        uint256 amount = msg.value;\n        require(amount != 0, \"Amount is 0\");\n        uint256 BNBPrice = uint256(BUSDBNB.latestAnswer());\n        uint256 tokenAmount = _getTokenAmount(amount.mul(10**18).div(BNBPrice));\n        _preValidatePurchase(beneficiary, tokenAmount);\n        _processPurchase(beneficiary, tokenAmount);\n        emit TokensPurchased(beneficiary, tokenAmount);\n        forwardBNB();\n    }\n\n    function buyDRCwithBUSD(uint256 amount) public nonReentrant {\n        address beneficiary = _msgSender();\n        require(amount != 0, \"Amount is 0\");\n        require(BUSD.balanceOf(beneficiary) >= amount, \"Not Enough Balance\");\n        require(\n            BUSD.allowance(beneficiary, address(this)) >= amount,\n            \"Not Enough Allowance\"\n        );\n        uint256 tokenAmount = _getTokenAmount(amount);\n        _preValidatePurchase(beneficiary, tokenAmount);\n        BUSD.safeTransferFrom(beneficiary, address(this), amount);\n        _processPurchase(beneficiary, tokenAmount);\n        emit TokensPurchased(beneficiary, tokenAmount);\n        forwardBUSD();\n    }\n\n    function _preValidatePurchase(address beneficiary, uint256 tokens)\n        internal\n        view\n    {\n        require(!_end, \"Sale Ended\");\n        require(beneficiary != address(0), \"Buyer is the zero address\");\n        require(tokens != 0, \"Sale token amount is 0\");\n        require(remainingTokens() >= tokens, \"Less tokens remaining\");\n    }\n\n    function _deliverTokens(address beneficiary, uint256 tokenAmount) internal {\n        _token.safeTransferFrom(_wallet, beneficiary, tokenAmount);\n        _tokensSold = _tokensSold.add(tokenAmount);\n    }\n\n    function _processPurchase(address beneficiary, uint256 tokenAmount)\n        internal\n    {\n        _deliverTokens(beneficiary, tokenAmount);\n    }\n\n    function _getTokenAmount(uint256 amount) internal view returns (uint256) {\n        return amount.mul(_rate).mul(10**9).div(10**18);\n    }\n\n    function forwardBNB() public {\n        _wallet.transfer(address(this).balance);\n    }\n\n    function forwardDRC() public {\n        if (_token.balanceOf(address(this)) > 0) {\n            _token.safeTransfer(_wallet, _token.balanceOf(address(this)));\n        }\n    }\n\n    function forwardBUSD() public {\n        BUSD.safeTransfer(_wallet, BUSD.balanceOf(address(this)));\n    }\n}\n",
  "sourcePath": "C:\\Users\\suraj\\OneDrive\\Documents\\doggy\\solidity\\contracts\\DRCSeller.sol",
  "compiler": {
    "name": "solc",
    "version": "0.6.6+commit.6c089d02.Emscripten.clang"
  },
  "schemaVersion": "3.4.3",
  "updatedAt": "2021-12-19T22:30:08.445Z",
  "networkType": "ethereum",
  "devdoc": {
    "methods": {
      "owner()": {
        "details": "Returns the address of the current owner."
      },
      "renounceOwnership()": {
        "details": "Leaves the contract without owner. It will not be possible to call `onlyOwner` functions anymore. Can only be called by the current owner.     * NOTE: Renouncing ownership will leave the contract without an owner, thereby removing any functionality that is only available to the owner."
      },
      "transferOwnership(address)": {
        "details": "Transfers ownership of the contract to a new account (`newOwner`). Can only be called by the current owner."
      }
    }
  },
  "userdoc": {
    "methods": {}
  }
}